{
  "contractName": "DopeRaiderChemicalToken",
  "abi": [
    {
      "constant": true,
      "inputs": [],
      "name": "narcoCore",
      "outputs": [
        {
          "name": "",
          "type": "address"
        }
      ],
      "payable": false,
      "stateMutability": "view",
      "type": "function"
    },
    {
      "constant": true,
      "inputs": [],
      "name": "name",
      "outputs": [
        {
          "name": "",
          "type": "string"
        }
      ],
      "payable": false,
      "stateMutability": "view",
      "type": "function"
    },
    {
      "constant": false,
      "inputs": [
        {
          "name": "spender",
          "type": "address"
        },
        {
          "name": "tokens",
          "type": "uint256"
        }
      ],
      "name": "approve",
      "outputs": [
        {
          "name": "success",
          "type": "bool"
        }
      ],
      "payable": false,
      "stateMutability": "nonpayable",
      "type": "function"
    },
    {
      "constant": true,
      "inputs": [],
      "name": "totalSupply",
      "outputs": [
        {
          "name": "",
          "type": "uint256"
        }
      ],
      "payable": false,
      "stateMutability": "view",
      "type": "function"
    },
    {
      "constant": true,
      "inputs": [],
      "name": "coreAddress",
      "outputs": [
        {
          "name": "",
          "type": "address"
        }
      ],
      "payable": false,
      "stateMutability": "view",
      "type": "function"
    },
    {
      "constant": true,
      "inputs": [],
      "name": "districtContractAddress",
      "outputs": [
        {
          "name": "",
          "type": "address"
        }
      ],
      "payable": false,
      "stateMutability": "view",
      "type": "function"
    },
    {
      "constant": false,
      "inputs": [
        {
          "name": "from",
          "type": "address"
        },
        {
          "name": "to",
          "type": "address"
        },
        {
          "name": "tokens",
          "type": "uint256"
        }
      ],
      "name": "transferFrom",
      "outputs": [
        {
          "name": "success",
          "type": "bool"
        }
      ],
      "payable": false,
      "stateMutability": "nonpayable",
      "type": "function"
    },
    {
      "constant": true,
      "inputs": [],
      "name": "decimals",
      "outputs": [
        {
          "name": "",
          "type": "uint8"
        }
      ],
      "payable": false,
      "stateMutability": "view",
      "type": "function"
    },
    {
      "constant": true,
      "inputs": [
        {
          "name": "tokenOwner",
          "type": "address"
        }
      ],
      "name": "balanceOf",
      "outputs": [
        {
          "name": "balance",
          "type": "uint256"
        }
      ],
      "payable": false,
      "stateMutability": "view",
      "type": "function"
    },
    {
      "constant": true,
      "inputs": [],
      "name": "districtsCore",
      "outputs": [
        {
          "name": "",
          "type": "address"
        }
      ],
      "payable": false,
      "stateMutability": "view",
      "type": "function"
    },
    {
      "constant": false,
      "inputs": [],
      "name": "acceptOwnership",
      "outputs": [],
      "payable": false,
      "stateMutability": "nonpayable",
      "type": "function"
    },
    {
      "constant": true,
      "inputs": [],
      "name": "owner",
      "outputs": [
        {
          "name": "",
          "type": "address"
        }
      ],
      "payable": false,
      "stateMutability": "view",
      "type": "function"
    },
    {
      "constant": true,
      "inputs": [],
      "name": "symbol",
      "outputs": [
        {
          "name": "",
          "type": "string"
        }
      ],
      "payable": false,
      "stateMutability": "view",
      "type": "function"
    },
    {
      "constant": false,
      "inputs": [
        {
          "name": "to",
          "type": "address"
        },
        {
          "name": "tokens",
          "type": "uint256"
        }
      ],
      "name": "transfer",
      "outputs": [
        {
          "name": "success",
          "type": "bool"
        }
      ],
      "payable": false,
      "stateMutability": "nonpayable",
      "type": "function"
    },
    {
      "constant": false,
      "inputs": [
        {
          "name": "spender",
          "type": "address"
        },
        {
          "name": "tokens",
          "type": "uint256"
        },
        {
          "name": "data",
          "type": "bytes"
        }
      ],
      "name": "approveAndCall",
      "outputs": [
        {
          "name": "success",
          "type": "bool"
        }
      ],
      "payable": false,
      "stateMutability": "nonpayable",
      "type": "function"
    },
    {
      "constant": true,
      "inputs": [],
      "name": "newOwner",
      "outputs": [
        {
          "name": "",
          "type": "address"
        }
      ],
      "payable": false,
      "stateMutability": "view",
      "type": "function"
    },
    {
      "constant": false,
      "inputs": [
        {
          "name": "tokenAddress",
          "type": "address"
        },
        {
          "name": "tokens",
          "type": "uint256"
        }
      ],
      "name": "transferAnyERC20Token",
      "outputs": [
        {
          "name": "success",
          "type": "bool"
        }
      ],
      "payable": false,
      "stateMutability": "nonpayable",
      "type": "function"
    },
    {
      "constant": true,
      "inputs": [
        {
          "name": "tokenOwner",
          "type": "address"
        },
        {
          "name": "spender",
          "type": "address"
        }
      ],
      "name": "allowance",
      "outputs": [
        {
          "name": "remaining",
          "type": "uint256"
        }
      ],
      "payable": false,
      "stateMutability": "view",
      "type": "function"
    },
    {
      "constant": false,
      "inputs": [
        {
          "name": "_newOwner",
          "type": "address"
        }
      ],
      "name": "transferOwnership",
      "outputs": [],
      "payable": false,
      "stateMutability": "nonpayable",
      "type": "function"
    },
    {
      "payable": true,
      "stateMutability": "payable",
      "type": "fallback"
    },
    {
      "anonymous": false,
      "inputs": [
        {
          "indexed": true,
          "name": "_from",
          "type": "address"
        },
        {
          "indexed": true,
          "name": "_to",
          "type": "address"
        }
      ],
      "name": "OwnershipTransferred",
      "type": "event"
    },
    {
      "anonymous": false,
      "inputs": [
        {
          "indexed": true,
          "name": "from",
          "type": "address"
        },
        {
          "indexed": true,
          "name": "to",
          "type": "address"
        },
        {
          "indexed": false,
          "name": "tokens",
          "type": "uint256"
        }
      ],
      "name": "Transfer",
      "type": "event"
    },
    {
      "anonymous": false,
      "inputs": [
        {
          "indexed": true,
          "name": "tokenOwner",
          "type": "address"
        },
        {
          "indexed": true,
          "name": "spender",
          "type": "address"
        },
        {
          "indexed": false,
          "name": "tokens",
          "type": "uint256"
        }
      ],
      "name": "Approval",
      "type": "event"
    },
    {
      "constant": false,
      "inputs": [
        {
          "name": "_district",
          "type": "uint256"
        }
      ],
      "name": "setRedeemDistrict",
      "outputs": [],
      "payable": false,
      "stateMutability": "nonpayable",
      "type": "function"
    },
    {
      "constant": false,
      "inputs": [
        {
          "name": "_value",
          "type": "uint256"
        }
      ],
      "name": "setTokenValue",
      "outputs": [],
      "payable": false,
      "stateMutability": "nonpayable",
      "type": "function"
    },
    {
      "constant": false,
      "inputs": [
        {
          "name": "_address",
          "type": "address"
        }
      ],
      "name": "setDistrictAddress",
      "outputs": [],
      "payable": false,
      "stateMutability": "nonpayable",
      "type": "function"
    },
    {
      "constant": false,
      "inputs": [
        {
          "name": "_address",
          "type": "address"
        }
      ],
      "name": "setNarcosCoreAddress",
      "outputs": [],
      "payable": false,
      "stateMutability": "nonpayable",
      "type": "function"
    },
    {
      "constant": false,
      "inputs": [
        {
          "name": "_narcoId",
          "type": "uint256"
        },
        {
          "name": "_quantity",
          "type": "uint8"
        }
      ],
      "name": "redeemToken",
      "outputs": [],
      "payable": false,
      "stateMutability": "nonpayable",
      "type": "function"
    },
    {
      "constant": false,
      "inputs": [
        {
          "name": "_recipient",
          "type": "address[]"
        },
        {
          "name": "_quantity",
          "type": "uint256"
        }
      ],
      "name": "airdropTokens",
      "outputs": [],
      "payable": false,
      "stateMutability": "nonpayable",
      "type": "function"
    },
    {
      "constant": false,
      "inputs": [],
      "name": "withdraw",
      "outputs": [],
      "payable": false,
      "stateMutability": "nonpayable",
      "type": "function"
    },
    {
      "constant": true,
      "inputs": [
        {
          "name": "_id",
          "type": "uint256"
        }
      ],
      "name": "passthrough",
      "outputs": [
        {
          "name": "narcoName",
          "type": "string"
        },
        {
          "name": "location",
          "type": "uint256"
        }
      ],
      "payable": false,
      "stateMutability": "view",
      "type": "function"
    }
  ],
  "bytecode": "0x6002600881905560076009556753444835ec580000600a5560008054600160a060020a0319163317905560c0604052600560808190527f445052434d00000000000000000000000000000000000000000000000000000060a090815262000067929162000116565b506040805180820190915260198082527f446f7065526169646572204368656d6963616c20546f6b656e000000000000006020909201918252620000ae9160039162000116565b50633b9aca00600581905560008054600160a060020a0390811682526006602090815260408084208590558354815195865290519216937fddf252ad1be2c89b69c2b068fc378daa952ba7f163c4a11628f55a4df523b3ef929081900390910190a3620001bb565b828054600181600116156101000203166002900490600052602060002090601f016020900481019282601f106200015957805160ff191683800117855562000189565b8280016001018555821562000189579182015b82811115620001895782518255916020019190600101906200016c565b50620001979291506200019b565b5090565b620001b891905b80821115620001975760008155600101620001a2565b90565b6116c280620001cb6000396000f3006080604052600436106101455763ffffffff60e060020a600035041663019f5c5b811461014757806306fdde0314610178578063095ea7b31461020257806318160ddd1461023a5780631c0ad6461461026157806320f317fb1461027657806323b872dd1461028b578063313ce567146102b55780633ccfd60b146102e05780634eb7be5b146102f55780635444e738146103165780636c12d0aa1461033757806370a082311461034f578063726b82ae14610370578063757501c51461038e57806379ba5097146103a35780638da5cb5b146103b85780638f336a56146103cd57806395d89b4114610464578063a11223da14610479578063a2bf6939146104d0578063a9059cbb146104e8578063cae9ca511461050c578063d4ee1d9014610575578063dc39d06d1461058a578063dd62ed3e146105ae578063f2fde38b146105d5575b005b34801561015357600080fd5b5061015c6105f6565b60408051600160a060020a039092168252519081900360200190f35b34801561018457600080fd5b5061018d610605565b6040805160208082528351818301528351919283929083019185019080838360005b838110156101c75781810151838201526020016101af565b50505050905090810190601f1680156101f45780820380516001836020036101000a031916815260200191505b509250505060405180910390f35b34801561020e57600080fd5b50610226600160a060020a0360043516602435610693565b604080519115158252519081900360200190f35b34801561024657600080fd5b5061024f6106fa565b60408051918252519081900360200190f35b34801561026d57600080fd5b5061015c61073d565b34801561028257600080fd5b5061015c61074c565b34801561029757600080fd5b50610226600160a060020a036004358116906024351660443561075b565b3480156102c157600080fd5b506102ca610866565b6040805160ff9092168252519081900360200190f35b3480156102ec57600080fd5b5061014561086f565b34801561030157600080fd5b50610145600160a060020a03600435166108c1565b34801561032257600080fd5b50610145600160a060020a03600435166108e1565b34801561034357600080fd5b50610145600435610901565b34801561035b57600080fd5b5061024f600160a060020a036004351661091d565b34801561037c57600080fd5b5061014560043560ff60243516610938565b34801561039a57600080fd5b5061015c610e19565b3480156103af57600080fd5b50610145610e28565b3480156103c457600080fd5b5061015c610eb0565b3480156103d957600080fd5b506103e5600435610ebf565b6040518080602001838152602001828103825284818151815260200191508051906020019080838360005b83811015610428578181015183820152602001610410565b50505050905090810190601f1680156104555780820380516001836020036101000a031916815260200191505b50935050505060405180910390f35b34801561047057600080fd5b5061018d6110c4565b34801561048557600080fd5b506040805160206004803580820135838102808601850190965280855261014595369593946024949385019291829185019084908082843750949750509335945061111c9350505050565b3480156104dc57600080fd5b5061014560043561117a565b3480156104f457600080fd5b50610226600160a060020a0360043516602435611196565b34801561051857600080fd5b50604080516020600460443581810135601f8101849004840285018401909552848452610226948235600160a060020a03169460248035953695946064949201919081908401838280828437509497506112469650505050505050565b34801561058157600080fd5b5061015c6113a7565b34801561059657600080fd5b50610226600160a060020a03600435166024356113b6565b3480156105ba57600080fd5b5061024f600160a060020a0360043581169060243516611471565b3480156105e157600080fd5b50610145600160a060020a036004351661149c565b600e54600160a060020a031681565b6003805460408051602060026001851615610100026000190190941693909304601f8101849004840282018401909252818152929183018282801561068b5780601f106106605761010080835404028352916020019161068b565b820191906000526020600020905b81548152906001019060200180831161066e57829003601f168201915b505050505081565b336000818152600760209081526040808320600160a060020a038716808552908352818420869055815186815291519394909390927f8c5be1e5ebec7d5bd14f71427d1e84f3dd0314c0f7b2291e5b200ac8c7c3b925928290030190a35060015b92915050565b600080805260066020527f54cdd369e4e8a8515e52ca72ec816c2101831ad1f18bf44102ed171459c9b4f8546005546107389163ffffffff6114e216565b905090565b600d54600160a060020a031681565b600b54600160a060020a031681565b600160a060020a038316600090815260066020526040812054610784908363ffffffff6114e216565b600160a060020a03851660009081526006602090815260408083209390935560078152828220338352905220546107c1908363ffffffff6114e216565b600160a060020a038086166000908152600760209081526040808320338452825280832094909455918616815260069091522054610805908363ffffffff6114f716565b600160a060020a0380851660008181526006602090815260409182902094909455805186815290519193928816927fddf252ad1be2c89b69c2b068fc378daa952ba7f163c4a11628f55a4df523b3ef92918290030190a35060019392505050565b60045460ff1681565b600054600160a060020a0316331461088657600080fd5b6000303111156108bf576040513390303180156108fc02916000818181858888f193505050501580156108bd573d6000803e3d6000fd5b505b565b600054600160a060020a031633146108d857600080fd5b6108bd81611507565b600054600160a060020a031633146108f857600080fd5b6108bd816115bf565b600054600160a060020a0316331461091857600080fd5b600955565b600160a060020a031660009081526006602052604090205490565b600080610943611677565b600e54604080517f6352211e0000000000000000000000000000000000000000000000000000000081526004810188905290516000923392600160a060020a0390911691636352211e9160248082019260209290919082900301818887803b1580156109ae57600080fd5b505af11580156109c2573d6000803e3d6000fd5b505050506040513d60208110156109d857600080fd5b5051600160a060020a0316148015610a865750600954600c54604080517f5b42109d000000000000000000000000000000000000000000000000000000008152600481018a90529051600160a060020a0390921691635b42109d916024808201926020929091908290030181600087803b158015610a5557600080fd5b505af1158015610a69573d6000803e3d6000fd5b505050506040513d6020811015610a7f57600080fd5b505160ff16145b1515610a9157600080fd5b8460ff16610a9e3361091d565b1015610aa957600080fd5b600e54604080517f1b8ef0bb00000000000000000000000000000000000000000000000000000000815260048101899052905160ff881692600160a060020a031691631b8ef0bb9160248083019260209291908290030181600087803b158015610b1257600080fd5b505af1158015610b26573d6000803e3d6000fd5b505050506040513d6020811015610b3c57600080fd5b505160ff161015610b4c57600080fd5b600e54604080517f33f30a43000000000000000000000000000000000000000000000000000000008152600481018990529051600160a060020a03909216916333f30a439160248082019260009290919082900301818387803b158015610bb257600080fd5b505af1158015610bc6573d6000803e3d6000fd5b505050506040513d6000823e601f3d908101601f19168201604052610400811015610bf057600080fd5b810190808051640100000000811115610c0857600080fd5b82016020810184811115610c1b57600080fd5b8151640100000000811182820187101715610c3557600080fd5b5050602082015160408301516101a084018051939692959194606081019461012090910193929190640100000000811115610c6f57600080fd5b82016020810184811115610c8257600080fd5b8151640100000000811182820187101715610c9c57600080fd5b5050600054979c50959a50929850610cca965050600160a060020a039094169350505060ff88169050611196565b50600854829060048110610cda57fe5b6020020151600c54600854604080517fcf5f87d0000000000000000000000000000000000000000000000000000000008152600481018b9052602481019290925260ff938901938416604483015251929350600160a060020a039091169163cf5f87d09160648082019260009290919082900301818387803b158015610d5f57600080fd5b505af1158015610d73573d6000803e3d6000fd5b5050600c54600a54600954604080517f9b8430eb0000000000000000000000000000000000000000000000000000000081526004810192909252603260248301819052604483015251600160a060020a039093169450639b8430eb935060ff8a1690910291606480830192600092919082900301818588803b158015610df857600080fd5b505af1158015610e0c573d6000803e3d6000fd5b5050505050505050505050565b600c54600160a060020a031681565b600154600160a060020a03163314610e3f57600080fd5b60015460008054604051600160a060020a0393841693909116917f8be0079c531659141344cd1fd0a4f28419497f9722a3daafe3b4186f6b6457e091a3600180546000805473ffffffffffffffffffffffffffffffffffffffff19908116600160a060020a03841617909155169055565b600054600160a060020a031681565b600e54604080517f33f30a43000000000000000000000000000000000000000000000000000000008152600481018490529051606092600092600160a060020a03909116916333f30a4391602480820192869290919082900301818387803b158015610f2a57600080fd5b505af1158015610f3e573d6000803e3d6000fd5b505050506040513d6000823e601f3d908101601f19168201604052610400811015610f6857600080fd5b810190808051640100000000811115610f8057600080fd5b82016020810184811115610f9357600080fd5b8151640100000000811182820187101715610fad57600080fd5b5050602082015160408301516101a084018051939692959194606081019461012090910193929190640100000000811115610fe757600080fd5b82016020810184811115610ffa57600080fd5b815164010000000081118282018710171561101457600080fd5b5050600c54604080517f5b42109d000000000000000000000000000000000000000000000000000000008152600481018f905290519a9c50600160a060020a0390911699635b42109d995060248083019950602098509096509086900301935084925060009150889050803b15801561108c57600080fd5b505af11580156110a0573d6000803e3d6000fd5b505050506040513d60208110156110b657600080fd5b5051919360ff909216925050565b6002805460408051602060018416156101000260001901909316849004601f8101849004840282018401909252818152929183018282801561068b5780601f106106605761010080835404028352916020019161068b565b60008054600160a060020a0316331461113457600080fd5b5060005b825181101561117557611162838281518110151561115257fe5b9060200190602002015183611196565b151561116d57600080fd5b600101611138565b505050565b600054600160a060020a0316331461119157600080fd5b600a55565b336000908152600660205260408120546111b6908363ffffffff6114e216565b3360009081526006602052604080822092909255600160a060020a038516815220546111e8908363ffffffff6114f716565b600160a060020a0384166000818152600660209081526040918290209390935580518581529051919233927fddf252ad1be2c89b69c2b068fc378daa952ba7f163c4a11628f55a4df523b3ef9281900390910190a350600192915050565b336000818152600760209081526040808320600160a060020a038816808552908352818420879055815187815291519394909390927f8c5be1e5ebec7d5bd14f71427d1e84f3dd0314c0f7b2291e5b200ac8c7c3b925928290030190a36040517f8f4ffcb10000000000000000000000000000000000000000000000000000000081523360048201818152602483018690523060448401819052608060648501908152865160848601528651600160a060020a038a1695638f4ffcb195948a94938a939192909160a490910190602085019080838360005b8381101561133657818101518382015260200161131e565b50505050905090810190601f1680156113635780820380516001836020036101000a031916815260200191505b5095505050505050600060405180830381600087803b15801561138557600080fd5b505af1158015611399573d6000803e3d6000fd5b506001979650505050505050565b600154600160a060020a031681565b60008054600160a060020a031633146113ce57600080fd5b60008054604080517fa9059cbb000000000000000000000000000000000000000000000000000000008152600160a060020a0392831660048201526024810186905290519186169263a9059cbb926044808401936020939083900390910190829087803b15801561143e57600080fd5b505af1158015611452573d6000803e3d6000fd5b505050506040513d602081101561146857600080fd5b50519392505050565b600160a060020a03918216600090815260076020908152604080832093909416825291909152205490565b600054600160a060020a031633146114b357600080fd5b6001805473ffffffffffffffffffffffffffffffffffffffff1916600160a060020a0392909216919091179055565b6000828211156114f157600080fd5b50900390565b818101828110156106f457600080fd5b600081905080600160a060020a0316636237564c6040518163ffffffff1660e060020a028152600401602060405180830381600087803b15801561154a57600080fd5b505af115801561155e573d6000803e3d6000fd5b505050506040513d602081101561157457600080fd5b5051151561158157600080fd5b600c8054600160a060020a0392831673ffffffffffffffffffffffffffffffffffffffff1991821617909155600b8054939092169216919091179055565b600081905080600160a060020a0316631051db346040518163ffffffff1660e060020a028152600401602060405180830381600087803b15801561160257600080fd5b505af1158015611616573d6000803e3d6000fd5b505050506040513d602081101561162c57600080fd5b5051151561163957600080fd5b600e8054600160a060020a0392831673ffffffffffffffffffffffffffffffffffffffff1991821617909155600d8054939092169216919091179055565b60806040519081016040528060049060208202803883395091929150505600a165627a7a72305820960a78fedc5fbcc0c60bf491c640a9d654f5ada2519a3aa406b1f697b299dc580029",
  "source": "pragma solidity ^0.4.24;\n\n// DopeRaiderChemicalToken Contract\n// by gasmasters.io\n// contact: team@doperaider.com\n\n// ----------------------------------------------------------------------------\n// Safe maths\n// ----------------------------------------------------------------------------\nlibrary SafeMath {\n    function add(uint a, uint b) internal pure returns (uint c) {\n        c = a + b;\n        require(c >= a);\n    }\n    function sub(uint a, uint b) internal pure returns (uint c) {\n        require(b <= a);\n        c = a - b;\n    }\n    function mul(uint a, uint b) internal pure returns (uint c) {\n        c = a * b;\n        require(a == 0 || c / a == b);\n    }\n    function div(uint a, uint b) internal pure returns (uint c) {\n        require(b > 0);\n        c = a / b;\n    }\n}\n\n// core narco contract for getting narco stats\ncontract NarcosCoreInterface {\n  function getNarco(uint256 _id)\n  public\n  view\n  returns(\n    string  narcoName,\n    uint256 weedTotal,\n    uint256 cokeTotal,\n    uint16[6] skills,\n    uint8[4] consumables,\n    string genes,\n    uint8 homeLocation,\n    uint16 level,\n    uint256[6] cooldowns,\n    uint256 id,\n    uint16[9] stats\n  );\n  function implementsERC721() public pure returns(bool);\n  function ownerOf(uint256 _tokenId) public view returns(address owner);\n  function getRemainingCapacity(uint256 _id) public view returns (uint8 capacity);\n}\n// core districts contract for checking location and redeeming tokens\ncontract DistrictsCoreInterface {\n  function isDopeRaiderDistrictsCore() public pure returns (bool);\n  function getNarcoLocation(uint256 _narcoId) public view returns (uint8 location);\n  function updateConsumable(uint256 _narcoId,  uint256 _index ,uint8 _newQuantity) public;\n  function updateWeedTotal(uint256 _narcoId,  uint16 _total) public;\n  function updatCokeTotal(uint256 _narcoId,  uint16 _total) public;\n  function distributeRevenue(uint256 _district , uint8 _splitW, uint8 _splitC) public payable;\n}\n\n\n\n// ----------------------------------------------------------------------------\n// ERC Token Standard #20 Interface\n// https://github.com/ethereum/EIPs/blob/master/EIPS/eip-20.md\n// ----------------------------------------------------------------------------\ncontract ERC20Interface {\n    function totalSupply() public constant returns (uint);\n    function balanceOf(address tokenOwner) public constant returns (uint balance);\n    function allowance(address tokenOwner, address spender) public constant returns (uint remaining);\n    function transfer(address to, uint tokens) public returns (bool success);\n    function approve(address spender, uint tokens) public returns (bool success);\n    function transferFrom(address from, address to, uint tokens) public returns (bool success);\n\n    event Transfer(address indexed from, address indexed to, uint tokens);\n    event Approval(address indexed tokenOwner, address indexed spender, uint tokens);\n}\n\n\n// ----------------------------------------------------------------------------\n// Contract function to receive approval and execute function in one call\n//\n// Borrowed from MiniMeToken\n// ----------------------------------------------------------------------------\ncontract ApproveAndCallFallBack {\n    function receiveApproval(address from, uint256 tokens, address token, bytes data) public;\n}\n\n\n// ----------------------------------------------------------------------------\n// Owned contract\n// ----------------------------------------------------------------------------\ncontract Owned {\n    address public owner;\n    address public newOwner;\n\n    event OwnershipTransferred(address indexed _from, address indexed _to);\n\n    constructor() public {\n        owner = msg.sender;\n    }\n\n    modifier onlyOwner {\n        require(msg.sender == owner);\n        _;\n    }\n\n    function transferOwnership(address _newOwner) public onlyOwner {\n        newOwner = _newOwner;\n    }\n    function acceptOwnership() public {\n        require(msg.sender == newOwner);\n        emit OwnershipTransferred(owner, newOwner);\n        owner = newOwner;\n        newOwner = address(0);\n    }\n}\n\n\n// ----------------------------------------------------------------------------\n// ERC20 Token, with the addition of symbol, name and decimals and a\n// fixed supply\n// ----------------------------------------------------------------------------\ncontract FixedSupplyToken is ERC20Interface, Owned {\n    using SafeMath for uint;\n\n    string public symbol;\n    string public  name;\n    uint8 public decimals;\n    uint _totalSupply;\n\n    mapping(address => uint) balances;\n    mapping(address => mapping(address => uint)) allowed;\n\n\n    // ------------------------------------------------------------------------\n    // Constructor\n    // ------------------------------------------------------------------------\n    constructor() public {\n        symbol = \"DPRCM\";\n        name = \"DopeRaider Chemical Token\";\n        _totalSupply = 1000000000; //1Billion\n        balances[owner] = _totalSupply;\n        emit Transfer(address(0), owner, _totalSupply);\n    }\n\n    // ------------------------------------------------------------------------\n    // Total supply\n    // ------------------------------------------------------------------------\n    function totalSupply() public view returns (uint) {\n        return _totalSupply.sub(balances[address(0)]);\n    }\n\n\n    // ------------------------------------------------------------------------\n    // Get the token balance for account `tokenOwner`\n    // ------------------------------------------------------------------------\n    function balanceOf(address tokenOwner) public view returns (uint balance) {\n        return balances[tokenOwner];\n    }\n\n\n    // ------------------------------------------------------------------------\n    // Transfer the balance from token owner's account to `to` account\n    // - Owner's account must have sufficient balance to transfer\n    // - 0 value transfers are allowed\n    // ------------------------------------------------------------------------\n    function transfer(address to, uint tokens) public returns (bool success) {\n        balances[msg.sender] = balances[msg.sender].sub(tokens);\n        balances[to] = balances[to].add(tokens);\n        emit Transfer(msg.sender, to, tokens);\n        return true;\n    }\n\n\n    // ------------------------------------------------------------------------\n    // Token owner can approve for `spender` to transferFrom(...) `tokens`\n    // from the token owner's account\n    //\n    // https://github.com/ethereum/EIPs/blob/master/EIPS/eip-20-token-standard.md\n    // recommends that there are no checks for the approval double-spend attack\n    // as this should be implemented in user interfaces\n    // ------------------------------------------------------------------------\n    function approve(address spender, uint tokens) public returns (bool success) {\n        allowed[msg.sender][spender] = tokens;\n        emit Approval(msg.sender, spender, tokens);\n        return true;\n    }\n\n\n    // ------------------------------------------------------------------------\n    // Transfer `tokens` from the `from` account to the `to` account\n    //\n    // The calling account must already have sufficient tokens approve(...)-d\n    // for spending from the `from` account and\n    // - From account must have sufficient balance to transfer\n    // - Spender must have sufficient allowance to transfer\n    // - 0 value transfers are allowed\n    // ------------------------------------------------------------------------\n    function transferFrom(address from, address to, uint tokens) public returns (bool success) {\n        balances[from] = balances[from].sub(tokens);\n        allowed[from][msg.sender] = allowed[from][msg.sender].sub(tokens);\n        balances[to] = balances[to].add(tokens);\n        emit Transfer(from, to, tokens);\n        return true;\n    }\n\n\n    // ------------------------------------------------------------------------\n    // Returns the amount of tokens approved by the owner that can be\n    // transferred to the spender's account\n    // ------------------------------------------------------------------------\n    function allowance(address tokenOwner, address spender) public view returns (uint remaining) {\n        return allowed[tokenOwner][spender];\n    }\n\n\n    // ------------------------------------------------------------------------\n    // Token owner can approve for `spender` to transferFrom(...) `tokens`\n    // from the token owner's account. The `spender` contract function\n    // `receiveApproval(...)` is then executed\n    // ------------------------------------------------------------------------\n    function approveAndCall(address spender, uint tokens, bytes data) public returns (bool success) {\n        allowed[msg.sender][spender] = tokens;\n        emit Approval(msg.sender, spender, tokens);\n        ApproveAndCallFallBack(spender).receiveApproval(msg.sender, tokens, this, data);\n        return true;\n    }\n\n\n    // ------------------------------------------------------------------------\n    // accept payment to allow fund airdrops\n    // ------------------------------------------------------------------------\n    function () public payable {\n      // accept payment to allow fund airdrops\n    }\n\n\n    // ------------------------------------------------------------------------\n    // Owner can transfer out any accidentally sent ERC20 tokens\n    // ------------------------------------------------------------------------\n    function transferAnyERC20Token(address tokenAddress, uint tokens) public onlyOwner returns (bool success) {\n        return ERC20Interface(tokenAddress).transfer(owner, tokens);\n    }\n}\n\n\n// ----------------------------------------------------------------------------\n// DopeRaiderChemicalToken\n// ----------------------------------------------------------------------------\ncontract DopeRaiderChemicalToken is ERC20Interface,  Owned  , FixedSupplyToken {\n    using SafeMath for uint;\n\n    uint consumableIndex = 2;\n\n    /*\n    uint constant gasIndex = 0;\n    uint constant seedsIndex = 1;\n    uint constant chemicalsIndex = 2;\n    uint constant ammoIndex = 3;\n    */\n\n    uint redeemDistrict = 7; // the location where this token can be redeemed\n\n\n    function setRedeemDistrict(uint _district) public onlyOwner {\n    redeemDistrict = _district;\n    }\n\n    uint256 tokenValue = 6 ether; //\n    function setTokenValue(uint _value) public onlyOwner {\n    tokenValue = _value;\n    }\n\n    address public districtContractAddress;\n    DistrictsCoreInterface public districtsCore;\n\n    function setDistrictAddress(address _address) public onlyOwner {\n    _setDistrictAddresss(_address);\n    }\n\n    function _setDistrictAddresss(address _address) internal {\n        DistrictsCoreInterface candidateContract = DistrictsCoreInterface(_address);\n        require(candidateContract.isDopeRaiderDistrictsCore());\n        districtsCore = candidateContract;\n        districtContractAddress = _address;\n    }\n\n   address public coreAddress;\n   NarcosCoreInterface public narcoCore;\n\n    function setNarcosCoreAddress(address _address) public onlyOwner {\n    _setNarcosCoreAddress(_address);\n    }\n\n    function _setNarcosCoreAddress(address _address) internal {\n        NarcosCoreInterface candidateContract = NarcosCoreInterface(_address);\n        require(candidateContract.implementsERC721());\n        narcoCore = candidateContract;\n        coreAddress = _address;\n    }\n\n    // ------------------------------------------------------------------------\n    // Redeem the token with rules.\n    // ------------------------------------------------------------------------\n    function redeemToken(uint256 _narcoId , uint8 _quantity) public  {\n        // must be owner of the narco and narco must be in redeem location\n        require(narcoCore.ownerOf(_narcoId) == msg.sender && districtsCore.getNarcoLocation(_narcoId)==redeemDistrict);\n        // msg.sender must own that number of tokens\n        require(balanceOf(msg.sender)>=_quantity);\n        require(narcoCore.getRemainingCapacity(_narcoId) >= _quantity); // narco has capacity to carry this much\n\n        uint256 narcoWeedTotal;\n        uint256 narcoCokeTotal;\n        uint8[4] memory narcoConsumables;\n\n        (\n                    ,\n          narcoWeedTotal,\n          narcoCokeTotal,\n          ,\n          narcoConsumables,\n                    ,\n                    ,\n                    ,\n                    ,\n                    ,\n        ) = narcoCore.getNarco(_narcoId);\n\n\n        // transfer the tokens back to the owner of the contract\n        transfer(owner,  _quantity);\n\n        // update the narco with the consumable\n       uint8 newQuantity = uint8(_quantity+ (narcoConsumables[consumableIndex]));\n       districtsCore.updateConsumable( _narcoId,  consumableIndex , newQuantity);\n       districtsCore.distributeRevenue.value(_quantity*tokenValue)(redeemDistrict,50,50); // distribute the revenue to districts pots\n\n\n    }// end redeem token\n\n    // ------------------------------------------------------------------------\n    // Airdrop tokens\n    // ------------------------------------------------------------------------\n    function airdropTokens(address[] _recipient , uint _quantity) public onlyOwner {\n        for(uint i = 0; i< _recipient.length; i++)\n        {\n              require(transfer(_recipient[i], _quantity));\n        }\n      }\n\n      // in case we need to upgrade this\n      function withdraw() external onlyOwner {\n            if (address(this).balance>0){\n              msg.sender.transfer(address(this).balance);\n            }\n        }\n\n    // ------------------------------------------------------------------------\n    // Passthru Test\n    // ------------------------------------------------------------------------\n    function passthrough(uint256 _id) public view returns (string  narcoName , uint location) {\n          (\n                narcoName   ,\n                            ,\n                            ,\n                            ,\n                            ,\n                            ,\n                            ,\n                            ,\n                            ,\n                            ,\n        ) = narcoCore.getNarco(_id);\n         location = districtsCore.getNarcoLocation(_id);\n    }\n\n}\n",
  "sourcePath": "/Users/darraghoflanagan/truffle-projects/doperaider-contracts/contracts/erc20/DopeRaiderChemicalToken.sol",
  "compiler": {
    "name": "solc",
    "version": "0.4.24+commit.e67f0147.Emscripten.clang"
  },
  "schemaVersion": "2.0.1",
  "updatedAt": "2018-09-15T15:41:57.233Z"
}