{
  "contractName": "DopeRaiderCalculations",
  "abi": [
    {
      "constant": true,
      "inputs": [],
      "name": "bustCoefficient",
      "outputs": [
        {
          "name": "",
          "type": "uint64"
        }
      ],
      "payable": false,
      "stateMutability": "view",
      "type": "function"
    },
    {
      "constant": true,
      "inputs": [],
      "name": "defS",
      "outputs": [
        {
          "name": "",
          "type": "uint64"
        }
      ],
      "payable": false,
      "stateMutability": "view",
      "type": "function"
    },
    {
      "constant": true,
      "inputs": [],
      "name": "wasRaidSuccess",
      "outputs": [
        {
          "name": "",
          "type": "bool"
        }
      ],
      "payable": false,
      "stateMutability": "view",
      "type": "function"
    },
    {
      "constant": true,
      "inputs": [],
      "name": "owner",
      "outputs": [
        {
          "name": "",
          "type": "address"
        }
      ],
      "payable": false,
      "stateMutability": "view",
      "type": "function"
    },
    {
      "constant": true,
      "inputs": [],
      "name": "attS",
      "outputs": [
        {
          "name": "",
          "type": "uint64"
        }
      ],
      "payable": false,
      "stateMutability": "view",
      "type": "function"
    },
    {
      "constant": true,
      "inputs": [],
      "name": "raidRespectLimit",
      "outputs": [
        {
          "name": "",
          "type": "uint64"
        }
      ],
      "payable": false,
      "stateMutability": "view",
      "type": "function"
    },
    {
      "constant": true,
      "inputs": [],
      "name": "earlyRaidCoefVictim",
      "outputs": [
        {
          "name": "",
          "type": "uint64"
        }
      ],
      "payable": false,
      "stateMutability": "view",
      "type": "function"
    },
    {
      "constant": true,
      "inputs": [],
      "name": "earlyRaidScalar",
      "outputs": [
        {
          "name": "",
          "type": "uint64"
        }
      ],
      "payable": false,
      "stateMutability": "view",
      "type": "function"
    },
    {
      "constant": false,
      "inputs": [
        {
          "name": "newOwner",
          "type": "address"
        }
      ],
      "name": "transferOwnership",
      "outputs": [],
      "payable": false,
      "stateMutability": "nonpayable",
      "type": "function"
    },
    {
      "constant": true,
      "inputs": [],
      "name": "bustRange",
      "outputs": [
        {
          "name": "",
          "type": "uint256"
        }
      ],
      "payable": false,
      "stateMutability": "view",
      "type": "function"
    },
    {
      "anonymous": false,
      "inputs": [
        {
          "indexed": true,
          "name": "previousOwner",
          "type": "address"
        },
        {
          "indexed": true,
          "name": "newOwner",
          "type": "address"
        }
      ],
      "name": "OwnershipTransferred",
      "type": "event"
    },
    {
      "constant": false,
      "inputs": [
        {
          "name": "_respectAttacker",
          "type": "uint16"
        },
        {
          "name": "_respectVictim",
          "type": "uint16"
        },
        {
          "name": "_attackSkill",
          "type": "uint16"
        },
        {
          "name": "_defenseSkill",
          "type": "uint16"
        }
      ],
      "name": "isRaided",
      "outputs": [
        {
          "name": "raided",
          "type": "bool"
        }
      ],
      "payable": false,
      "stateMutability": "nonpayable",
      "type": "function"
    },
    {
      "constant": false,
      "inputs": [
        {
          "name": "_speedSkill",
          "type": "uint16"
        }
      ],
      "name": "isBusted",
      "outputs": [
        {
          "name": "busted",
          "type": "bool"
        }
      ],
      "payable": false,
      "stateMutability": "nonpayable",
      "type": "function"
    },
    {
      "constant": false,
      "inputs": [
        {
          "name": "_range",
          "type": "uint256"
        }
      ],
      "name": "setBustRange",
      "outputs": [],
      "payable": false,
      "stateMutability": "nonpayable",
      "type": "function"
    },
    {
      "constant": false,
      "inputs": [
        {
          "name": "_seed",
          "type": "uint64"
        }
      ],
      "name": "setRandomSeed",
      "outputs": [],
      "payable": false,
      "stateMutability": "nonpayable",
      "type": "function"
    },
    {
      "constant": false,
      "inputs": [
        {
          "name": "_v",
          "type": "uint64"
        }
      ],
      "name": "setEarylRaidScaler",
      "outputs": [],
      "payable": false,
      "stateMutability": "nonpayable",
      "type": "function"
    },
    {
      "constant": false,
      "inputs": [
        {
          "name": "_v",
          "type": "uint64"
        }
      ],
      "name": "setEarylRaidCoefVictim",
      "outputs": [],
      "payable": false,
      "stateMutability": "nonpayable",
      "type": "function"
    },
    {
      "constant": false,
      "inputs": [
        {
          "name": "_v",
          "type": "uint64"
        }
      ],
      "name": "setRaidRespectLimit",
      "outputs": [],
      "payable": false,
      "stateMutability": "nonpayable",
      "type": "function"
    },
    {
      "constant": false,
      "inputs": [
        {
          "name": "_v",
          "type": "uint64"
        }
      ],
      "name": "setAttackScalar",
      "outputs": [],
      "payable": false,
      "stateMutability": "nonpayable",
      "type": "function"
    },
    {
      "constant": false,
      "inputs": [
        {
          "name": "_v",
          "type": "uint64"
        }
      ],
      "name": "setDefenseScalar",
      "outputs": [],
      "payable": false,
      "stateMutability": "nonpayable",
      "type": "function"
    }
  ],
  "bytecode": "0x6080604052600a60015560028054600567ffffffffffffffff199182168117604060020a608060020a0319908116680a000000000000000017608060020a60c060020a03199081167005000000000000000000000000000000001760c060020a60ff0219169094556003805490931690911716680200000000000000001790911670960000000000000000000000000000000017600160c060020a031690556000805433600160a060020a03199091161781556109079081906100c290396000f3006080604052600436106101065763ffffffff7c010000000000000000000000000000000000000000000000000000000060003504166357df45ce811461010b578063610db8371461013d57806363dbdd121461015257806374d1c83b146101765780637f860f461461019f5780638406225e146101cd57806388a55c8b146101ef578063894463f1146102075780638ba7e7b3146102295780638da5cb5b1461024b57806394d756241461027c578063a406a96c14610291578063bcd6b925146102a6578063bf780b27146102c2578063c2282392146102d7578063cd4d22dc146102f9578063e61decf91461030e578063f2fde38b14610330578063faa7fc6114610351575b600080fd5b34801561011757600080fd5b50610120610378565b6040805167ffffffffffffffff9092168252519081900360200190f35b34801561014957600080fd5b50610120610388565b34801561015e57600080fd5b5061017467ffffffffffffffff6004351661039f565b005b34801561018257600080fd5b5061018b6103f1565b604080519115158252519081900360200190f35b3480156101ab57600080fd5b5061018b61ffff60043581169060243581169060443581169060643516610401565b3480156101d957600080fd5b5061017467ffffffffffffffff6004351661055c565b3480156101fb57600080fd5b506101746004356105ae565b34801561021357600080fd5b5061017467ffffffffffffffff600435166105ca565b34801561023557600080fd5b5061017467ffffffffffffffff60043516610619565b34801561025757600080fd5b50610260610654565b60408051600160a060020a039092168252519081900360200190f35b34801561028857600080fd5b50610120610663565b34801561029d57600080fd5b5061012061067f565b3480156102b257600080fd5b5061018b61ffff60043516610696565b3480156102ce57600080fd5b506101206106e6565b3480156102e357600080fd5b5061017467ffffffffffffffff60043516610702565b34801561030557600080fd5b50610120610753565b34801561031a57600080fd5b5061017467ffffffffffffffff60043516610763565b34801561033c57600080fd5b50610174600160a060020a03600435166107b2565b34801561035d57600080fd5b50610366610846565b60408051918252519081900360200190f35b60025467ffffffffffffffff1681565b600254608060020a900467ffffffffffffffff1681565b600054600160a060020a031633146103b657600080fd5b6003805467ffffffffffffffff909216608060020a0277ffffffffffffffff0000000000000000000000000000000019909216919091179055565b60025460c060020a900460ff1681565b6000806000808661ffff16600360089054906101000a900467ffffffffffffffff1602600360009054906101000a900467ffffffffffffffff160167ffffffffffffffff168861ffff1611801561046e5750600354608060020a900467ffffffffffffffff1661ffff8816105b1561049e576002805478ff0000000000000000000000000000000000000000000000001916905560009350610551565b8461ffff168661ffff16600260089054906101000a900467ffffffffffffffff16010192506104cc8361084c565b60025490925067ffffffffffffffff608060020a909104811661ffff8716019150818116908316111561052a576002805478ff000000000000000000000000000000000000000000000000191660c060020a17905560019350610551565b6002805478ff00000000000000000000000000000000000000000000000019169055600093505b505050949350505050565b600054600160a060020a0316331461057357600080fd5b6002805467ffffffffffffffff909216608060020a0277ffffffffffffffff0000000000000000000000000000000019909216919091179055565b600054600160a060020a031633146105c557600080fd5b600155565b600054600160a060020a031633146105e157600080fd5b6003805467ffffffffffffffff90921668010000000000000000026fffffffffffffffff000000000000000019909216919091179055565b600054600160a060020a0316331461063057600080fd5b6003805467ffffffffffffffff191667ffffffffffffffff92909216919091179055565b600054600160a060020a031681565b60025468010000000000000000900467ffffffffffffffff1681565b600354608060020a900467ffffffffffffffff1681565b60025460009081906106bc90603267ffffffffffffffff90911661ffff8616020161084c565b60015490915067ffffffffffffffff8216116106db57600191506106e0565b600091505b50919050565b60035468010000000000000000900467ffffffffffffffff1681565b600054600160a060020a0316331461071957600080fd5b6003805467ffffffffffffffff90921660c060020a0277ffffffffffffffffffffffffffffffffffffffffffffffff909216919091179055565b60035467ffffffffffffffff1681565b600054600160a060020a0316331461077a57600080fd5b6002805467ffffffffffffffff90921668010000000000000000026fffffffffffffffff000000000000000019909216919091179055565b600054600160a060020a031633146107c957600080fd5b600160a060020a03811615156107de57600080fd5b60008054604051600160a060020a03808516939216917f8be0079c531659141344cd1fd0a4f28419497f9722a3daafe3b4186f6b6457e091a36000805473ffffffffffffffffffffffffffffffffffffffff1916600160a060020a0392909216919091179055565b60015481565b6003805460408051600019430140815267ffffffffffffffff60c060020a808504821681026020808501919091528451938490036028018420845242908401528351928390039093019091208116820277ffffffffffffffffffffffffffffffffffffffffffffffff909316929092179283905560009284831692919004168115156108d457fe5b06929150505600a165627a7a72305820ff77bf610ef0e1ef66ea3502af712e53b38019de8fefaacdabb1317dbfbe20340029",
  "source": "pragma solidity ^0.4.19;\n\n// DopeRaider Calculations Contract V3\n// by gasmasters.io\n// contact: team@doperaider.com\n\n/**\n * @title Ownable\n * @dev The Ownable contract has an owner address, and provides basic authorization control\n * functions, this simplifies the implementation of \"user permissions\".\n */\ncontract Ownable {\n  address public owner;\n\n\n  event OwnershipTransferred(address indexed previousOwner, address indexed newOwner);\n\n\n  /**\n   * @dev The Ownable constructor sets the original `owner` of the contract to the sender\n   * account.\n   */\n  function Ownable() public {\n    owner = msg.sender;\n  }\n\n  /**\n   * @dev Throws if called by any account other than the owner.\n   */\n  modifier onlyOwner() {\n    require(msg.sender == owner);\n    _;\n  }\n\n  /**\n   * @dev Allows the current owner to transfer control of the contract to a newOwner.\n   * @param newOwner The address to transfer ownership to.\n   */\n  function transferOwnership(address newOwner) public onlyOwner {\n    require(newOwner != address(0));\n    OwnershipTransferred(owner, newOwner);\n    owner = newOwner;\n  }\n\n}\n\n\ncontract DopeRaiderCalculations is Ownable {\n\n // configuration parameters\n // busting\n uint256 public bustRange = 10;\n uint64  public bustCoefficient = 5;\n\n\n  uint64  public attS = 10; // attack zone scalar\n  uint64  public defS = 5; // defense zone scalar\n\n  bool public wasRaidSuccess  = false;\n\n\n  uint64 public earlyRaidScalar = 5;\n  uint64 public earlyRaidCoefVictim = 2;\n\n  uint64 public raidRespectLimit  = 150;\n\n  function isRaided(uint16 _respectAttacker, uint16 _respectVictim, uint16 _attackSkill , uint16 _defenseSkill) public returns (bool raided) {\n\n      if ((_respectAttacker>earlyRaidScalar+(earlyRaidCoefVictim*_respectVictim)) && _respectVictim < raidRespectLimit) {\n        wasRaidSuccess = false;\n        return false;\n      }\n\n    uint64 attackZone  =  (attS + _attackSkill + _defenseSkill);\n    uint64 result = random(attackZone);\n    uint64 defenseZone = ( defS + _defenseSkill);\n\n      if (result>defenseZone){\n          wasRaidSuccess = true;\n          return true;\n      }\n      wasRaidSuccess = false;\n      return false;\n  }\n\n    // chance of busted based on speed skill\n    function isBusted(uint16 _speedSkill) public returns (bool busted) {\n        uint64 bustChance=random(50+(bustCoefficient*_speedSkill));\n        if (bustChance<=bustRange){\n        return true;\n        }\n        return false;\n    }\n\n\n    function setBustRange(uint256 _range) public onlyOwner{\n        bustRange = _range;\n    }\n    // pseudo random - but does that matter?\n    uint64 private seed = 0;\n    function setRandomSeed(uint64 _seed) public onlyOwner{\n        seed = _seed;\n    }\n    function random(uint64 upper) internal returns (uint64 randomNumber) {\n        seed = uint64(keccak256(keccak256(block.blockhash(block.number-1), seed), now));\n        return seed % upper;\n    }\n\n    function setEarylRaidScaler(uint64 _v) public onlyOwner{\n        earlyRaidScalar = _v;\n    }\n\n    function setEarylRaidCoefVictim(uint64 _v) public onlyOwner{\n        earlyRaidCoefVictim = _v;\n    }\n\n    function setRaidRespectLimit(uint64 _v) public onlyOwner{\n        raidRespectLimit = _v;\n    }\n\n    function setAttackScalar(uint64 _v) public onlyOwner{\n        attS = _v;\n    }\n    function setDefenseScalar(uint64 _v) public onlyOwner{\n        defS = _v;\n    }\n}\n",
  "sourcePath": "/Users/darraghoflanagan/truffle-projects/doperaider-contracts/contracts/DopeRaiderCalculations.sol",
  "compiler": {
    "name": "solc",
    "version": "0.4.24+commit.e67f0147.Emscripten.clang"
  },
  "schemaVersion": "2.0.1",
  "updatedAt": "2018-09-15T15:41:57.151Z"
}