{
  "contractName": "Owned",
  "abi": [
    {
      "constant": true,
      "inputs": [],
      "name": "owner",
      "outputs": [
        {
          "name": "",
          "type": "address"
        }
      ],
      "payable": false,
      "stateMutability": "view",
      "type": "function"
    },
    {
      "constant": true,
      "inputs": [],
      "name": "newOwner",
      "outputs": [
        {
          "name": "",
          "type": "address"
        }
      ],
      "payable": false,
      "stateMutability": "view",
      "type": "function"
    },
    {
      "inputs": [],
      "payable": false,
      "stateMutability": "nonpayable",
      "type": "constructor"
    },
    {
      "anonymous": false,
      "inputs": [
        {
          "indexed": true,
          "name": "_from",
          "type": "address"
        },
        {
          "indexed": true,
          "name": "_to",
          "type": "address"
        }
      ],
      "name": "OwnershipTransferred",
      "type": "event"
    },
    {
      "constant": false,
      "inputs": [
        {
          "name": "_newOwner",
          "type": "address"
        }
      ],
      "name": "transferOwnership",
      "outputs": [],
      "payable": false,
      "stateMutability": "nonpayable",
      "type": "function"
    },
    {
      "constant": false,
      "inputs": [],
      "name": "acceptOwnership",
      "outputs": [],
      "payable": false,
      "stateMutability": "nonpayable",
      "type": "function"
    }
  ],
  "bytecode": "0x608060405234801561001057600080fd5b5060008054600160a060020a031916331790556101fc806100326000396000f3006080604052600436106100615763ffffffff7c010000000000000000000000000000000000000000000000000000000060003504166379ba509781146100665780638da5cb5b1461007d578063d4ee1d90146100ae578063f2fde38b146100c3575b600080fd5b34801561007257600080fd5b5061007b6100e4565b005b34801561008957600080fd5b5061009261016c565b60408051600160a060020a039092168252519081900360200190f35b3480156100ba57600080fd5b5061009261017b565b3480156100cf57600080fd5b5061007b600160a060020a036004351661018a565b600154600160a060020a031633146100fb57600080fd5b60015460008054604051600160a060020a0393841693909116917f8be0079c531659141344cd1fd0a4f28419497f9722a3daafe3b4186f6b6457e091a3600180546000805473ffffffffffffffffffffffffffffffffffffffff19908116600160a060020a03841617909155169055565b600054600160a060020a031681565b600154600160a060020a031681565b600054600160a060020a031633146101a157600080fd5b6001805473ffffffffffffffffffffffffffffffffffffffff1916600160a060020a03929092169190911790555600a165627a7a7230582097729a38481afd1327e8011ad1934c5ee0e4262e484404ec2e2f46205b8e097a0029",
  "source": "pragma solidity ^0.4.24;\n\n// DopeRaiderWeedToken Contract\n// by gasmasters.io\n// contact: team@doperaider.com\n\n// ----------------------------------------------------------------------------\n// Safe maths\n// ----------------------------------------------------------------------------\nlibrary SafeMath {\n    function add(uint a, uint b) internal pure returns (uint c) {\n        c = a + b;\n        require(c >= a);\n    }\n    function sub(uint a, uint b) internal pure returns (uint c) {\n        require(b <= a);\n        c = a - b;\n    }\n    function mul(uint a, uint b) internal pure returns (uint c) {\n        c = a * b;\n        require(a == 0 || c / a == b);\n    }\n    function div(uint a, uint b) internal pure returns (uint c) {\n        require(b > 0);\n        c = a / b;\n    }\n}\n\n// core narco contract for getting narco stats\ncontract NarcosCoreInterface {\n  function getNarco(uint256 _id)\n  public\n  view\n  returns(\n    string  narcoName,\n    uint256 weedTotal,\n    uint256 cokeTotal,\n    uint16[6] skills,\n    uint8[4] consumables,\n    string genes,\n    uint8 homeLocation,\n    uint16 level,\n    uint256[6] cooldowns,\n    uint256 id,\n    uint16[9] stats\n  );\n  function implementsERC721() public pure returns(bool);\n  function ownerOf(uint256 _tokenId) public view returns(address owner);\n  function getRemainingCapacity(uint256 _id) public view returns (uint8 capacity);\n}\n// core districts contract for checking location and redeeming tokens\n// core districts contract for checking location and redeeming tokens\ncontract DistrictsCoreInterface {\n  function isDopeRaiderDistrictsCore() public pure returns (bool);\n  function getNarcoLocation(uint256 _narcoId) public view returns (uint8 location);\n  function updateConsumable(uint256 _narcoId,  uint256 _index ,uint8 _newQuantity) public;\n  function updateWeedTotal(uint256 _narcoId,  uint16 _total) public;\n  function updatCokeTotal(uint256 _narcoId,  uint16 _total) public;\n  function distributeRevenue(uint256 _district , uint8 _splitW, uint8 _splitC) public payable;\n}\n\n\n\n\n// ----------------------------------------------------------------------------\n// ERC Token Standard #20 Interface\n// https://github.com/ethereum/EIPs/blob/master/EIPS/eip-20.md\n// ----------------------------------------------------------------------------\ncontract ERC20Interface {\n    function totalSupply() public constant returns (uint);\n    function balanceOf(address tokenOwner) public constant returns (uint balance);\n    function allowance(address tokenOwner, address spender) public constant returns (uint remaining);\n    function transfer(address to, uint tokens) public returns (bool success);\n    function approve(address spender, uint tokens) public returns (bool success);\n    function transferFrom(address from, address to, uint tokens) public returns (bool success);\n\n    event Transfer(address indexed from, address indexed to, uint tokens);\n    event Approval(address indexed tokenOwner, address indexed spender, uint tokens);\n}\n\n\n// ----------------------------------------------------------------------------\n// Contract function to receive approval and execute function in one call\n//\n// Borrowed from MiniMeToken\n// ----------------------------------------------------------------------------\ncontract ApproveAndCallFallBack {\n    function receiveApproval(address from, uint256 tokens, address token, bytes data) public;\n}\n\n\n// ----------------------------------------------------------------------------\n// Owned contract\n// ----------------------------------------------------------------------------\ncontract Owned {\n    address public owner;\n    address public newOwner;\n\n    event OwnershipTransferred(address indexed _from, address indexed _to);\n\n    constructor() public {\n        owner = msg.sender;\n    }\n\n    modifier onlyOwner {\n        require(msg.sender == owner);\n        _;\n    }\n\n    function transferOwnership(address _newOwner) public onlyOwner {\n        newOwner = _newOwner;\n    }\n    function acceptOwnership() public {\n        require(msg.sender == newOwner);\n        emit OwnershipTransferred(owner, newOwner);\n        owner = newOwner;\n        newOwner = address(0);\n    }\n}\n\n\n// ----------------------------------------------------------------------------\n// ERC20 Token, with the addition of symbol, name and decimals and a\n// fixed supply\n// ----------------------------------------------------------------------------\ncontract FixedSupplyToken is ERC20Interface, Owned {\n    using SafeMath for uint;\n\n    string public symbol;\n    string public  name;\n    uint8 public decimals;\n    uint _totalSupply;\n\n    mapping(address => uint) balances;\n    mapping(address => mapping(address => uint)) allowed;\n\n\n    // ------------------------------------------------------------------------\n    // Constructor\n    // ------------------------------------------------------------------------\n    constructor() public {\n        symbol = \"DPRWEED\";\n        name = \"DopeRaider Weed Token\";\n        _totalSupply = 1000000000; //1Billion\n        balances[owner] = _totalSupply;\n        emit Transfer(address(0), owner, _totalSupply);\n    }\n\n    // ------------------------------------------------------------------------\n    // Total supply\n    // ------------------------------------------------------------------------\n    function totalSupply() public view returns (uint) {\n        return _totalSupply.sub(balances[address(0)]);\n    }\n\n\n    // ------------------------------------------------------------------------\n    // Get the token balance for account `tokenOwner`\n    // ------------------------------------------------------------------------\n    function balanceOf(address tokenOwner) public view returns (uint balance) {\n        return balances[tokenOwner];\n    }\n\n\n    // ------------------------------------------------------------------------\n    // Transfer the balance from token owner's account to `to` account\n    // - Owner's account must have sufficient balance to transfer\n    // - 0 value transfers are allowed\n    // ------------------------------------------------------------------------\n    function transfer(address to, uint tokens) public returns (bool success) {\n        balances[msg.sender] = balances[msg.sender].sub(tokens);\n        balances[to] = balances[to].add(tokens);\n        emit Transfer(msg.sender, to, tokens);\n        return true;\n    }\n\n\n    // ------------------------------------------------------------------------\n    // Token owner can approve for `spender` to transferFrom(...) `tokens`\n    // from the token owner's account\n    //\n    // https://github.com/ethereum/EIPs/blob/master/EIPS/eip-20-token-standard.md\n    // recommends that there are no checks for the approval double-spend attack\n    // as this should be implemented in user interfaces\n    // ------------------------------------------------------------------------\n    function approve(address spender, uint tokens) public returns (bool success) {\n        allowed[msg.sender][spender] = tokens;\n        emit Approval(msg.sender, spender, tokens);\n        return true;\n    }\n\n\n    // ------------------------------------------------------------------------\n    // Transfer `tokens` from the `from` account to the `to` account\n    //\n    // The calling account must already have sufficient tokens approve(...)-d\n    // for spending from the `from` account and\n    // - From account must have sufficient balance to transfer\n    // - Spender must have sufficient allowance to transfer\n    // - 0 value transfers are allowed\n    // ------------------------------------------------------------------------\n    function transferFrom(address from, address to, uint tokens) public returns (bool success) {\n        balances[from] = balances[from].sub(tokens);\n        allowed[from][msg.sender] = allowed[from][msg.sender].sub(tokens);\n        balances[to] = balances[to].add(tokens);\n        emit Transfer(from, to, tokens);\n        return true;\n    }\n\n\n    // ------------------------------------------------------------------------\n    // Returns the amount of tokens approved by the owner that can be\n    // transferred to the spender's account\n    // ------------------------------------------------------------------------\n    function allowance(address tokenOwner, address spender) public view returns (uint remaining) {\n        return allowed[tokenOwner][spender];\n    }\n\n\n    // ------------------------------------------------------------------------\n    // Token owner can approve for `spender` to transferFrom(...) `tokens`\n    // from the token owner's account. The `spender` contract function\n    // `receiveApproval(...)` is then executed\n    // ------------------------------------------------------------------------\n    function approveAndCall(address spender, uint tokens, bytes data) public returns (bool success) {\n        allowed[msg.sender][spender] = tokens;\n        emit Approval(msg.sender, spender, tokens);\n        ApproveAndCallFallBack(spender).receiveApproval(msg.sender, tokens, this, data);\n        return true;\n    }\n\n\n    // ------------------------------------------------------------------------\n    // accept payment to allow fund airdrops\n    // ------------------------------------------------------------------------\n    function () public payable {\n      // accept payment to allow fund airdrops\n    }\n\n\n    // ------------------------------------------------------------------------\n    // Owner can transfer out any accidentally sent ERC20 tokens\n    // ------------------------------------------------------------------------\n    function transferAnyERC20Token(address tokenAddress, uint tokens) public onlyOwner returns (bool success) {\n        return ERC20Interface(tokenAddress).transfer(owner, tokens);\n    }\n}\n\n\n// ----------------------------------------------------------------------------\n// DopeRaiderWeedToken\n// ----------------------------------------------------------------------------\ncontract DopeRaiderWeedToken is ERC20Interface,  Owned  , FixedSupplyToken {\n    using SafeMath for uint;\n\n    uint redeemDistrict = 7; // the location where this token can be redeemed\n\n    function setRedeemDistrict(uint _district) public onlyOwner {\n    redeemDistrict = _district;\n    }\n\n    uint256 tokenValue = 4 ether; //\n    function setTokenValue(uint _value) public onlyOwner {\n    tokenValue = _value;\n    }\n\n    address public districtContractAddress;\n    DistrictsCoreInterface public districtsCore;\n\n    function setDistrictAddress(address _address) public onlyOwner {\n    _setDistrictAddresss(_address);\n    }\n\n    function _setDistrictAddresss(address _address) internal {\n        DistrictsCoreInterface candidateContract = DistrictsCoreInterface(_address);\n        require(candidateContract.isDopeRaiderDistrictsCore());\n        districtsCore = candidateContract;\n        districtContractAddress = _address;\n    }\n\n   address public coreAddress;\n   NarcosCoreInterface public narcoCore;\n\n    function setNarcosCoreAddress(address _address) public onlyOwner {\n    _setNarcosCoreAddress(_address);\n    }\n\n    function _setNarcosCoreAddress(address _address) internal {\n        NarcosCoreInterface candidateContract = NarcosCoreInterface(_address);\n        require(candidateContract.implementsERC721());\n        narcoCore = candidateContract;\n        coreAddress = _address;\n    }\n\n    // ------------------------------------------------------------------------\n    // Redeem the token with rules.\n    // ------------------------------------------------------------------------\n    function redeemToken(uint256 _narcoId , uint8 _quantity) public  {\n        // must be owner of the narco and narco must be in redeem location\n        require(narcoCore.ownerOf(_narcoId) == msg.sender && districtsCore.getNarcoLocation(_narcoId)==redeemDistrict);\n        // msg.sender must own that number of tokens\n        require(balanceOf(msg.sender)>=_quantity);\n        require(narcoCore.getRemainingCapacity(_narcoId) >= _quantity); // narco has capacity to carry this much\n\n        uint256 narcoWeedTotal;\n        uint256 narcoCokeTotal;\n        uint8[4] memory narcoConsumables;\n\n        (\n                    ,\n          narcoWeedTotal,\n          narcoCokeTotal,\n          ,\n          narcoConsumables,\n                    ,\n                    ,\n                    ,\n                    ,\n                    ,\n        ) = narcoCore.getNarco(_narcoId);\n\n\n        // transfer the tokens back to the owner of the contract\n        transfer(owner,  _quantity);\n\n        // update the narco with the weed\n        districtsCore.updateWeedTotal( _narcoId,   _quantity);\n        districtsCore.distributeRevenue.value(_quantity*tokenValue)(redeemDistrict,100,0); // distribute the revenue to districts pots\n\n\n    }// end redeem token\n\n    // ------------------------------------------------------------------------\n    // Airdrop tokens\n    // ------------------------------------------------------------------------\n    function airdropTokens(address[] _recipient , uint _quantity) public onlyOwner {\n        for(uint i = 0; i< _recipient.length; i++)\n        {\n              require(transfer(_recipient[i], _quantity));\n        }\n      }\n\n      // in case we need to upgrade this\n      function withdraw() external onlyOwner {\n            if (address(this).balance>0){\n              msg.sender.transfer(address(this).balance);\n            }\n        }\n\n    // ------------------------------------------------------------------------\n    // Passthru Test\n    // ------------------------------------------------------------------------\n    function passthrough(uint256 _id) public view returns (string  narcoName , uint location) {\n          (\n                narcoName   ,\n                            ,\n                            ,\n                            ,\n                            ,\n                            ,\n                            ,\n                            ,\n                            ,\n                            ,\n        ) = narcoCore.getNarco(_id);\n         location = districtsCore.getNarcoLocation(_id);\n    }\n\n}\n",
  "sourcePath": "/Users/darraghoflanagan/truffle-projects/doperaider-contracts/contracts/erc20/DopeRaiderWeedToken.sol",
  "compiler": {
    "name": "solc",
    "version": "0.4.24+commit.e67f0147.Emscripten.clang"
  },
  "schemaVersion": "2.0.1",
  "updatedAt": "2018-09-15T15:38:19.513Z"
}