{
  "contractName": "SimpleStorage",
  "abi": [
    {
      "constant": true,
      "inputs": [
        {
          "name": "",
          "type": "address"
        }
      ],
      "name": "favoriteNumbers",
      "outputs": [
        {
          "name": "",
          "type": "uint256"
        }
      ],
      "payable": false,
      "stateMutability": "view",
      "type": "function"
    },
    {
      "constant": false,
      "inputs": [
        {
          "name": "x",
          "type": "uint256"
        }
      ],
      "name": "setFavorite",
      "outputs": [],
      "payable": false,
      "stateMutability": "nonpayable",
      "type": "function"
    },
    {
      "constant": false,
      "inputs": [
        {
          "name": "x",
          "type": "uint256"
        }
      ],
      "name": "setFavorite2",
      "outputs": [],
      "payable": false,
      "stateMutability": "nonpayable",
      "type": "function"
    }
  ],
  "bytecode": "0x608060405234801561001057600080fd5b5060fb8061001f6000396000f30060806040526004361060525763ffffffff7c01000000000000000000000000000000000000000000000000000000006000350416630486cbc7811460575780634b24c0a91460575780638afd775a14606e575b600080fd5b348015606257600080fd5b50606c60043560ab565b005b348015607957600080fd5b50609973ffffffffffffffffffffffffffffffffffffffff6004351660bd565b60408051918252519081900360200190f35b33600090815260208190526040902055565b600060208190529081526040902054815600a165627a7a7230582075296244cce6b2515ecd69a051e2e3f21d741ccb3623344950343caa453556e40029",
  "source": "pragma solidity ^0.4.17;\n\ncontract SimpleStorage {\n  mapping(address => uint256) public favoriteNumbers;\n\n  function setFavorite(uint x) public {\n    favoriteNumbers[msg.sender] = x;\n  }\n\n  function setFavorite2(uint x) public {\n    favoriteNumbers[msg.sender] = x;\n  }\n}\n",
  "sourcePath": "/Users/darraghoflanagan/truffle-projects/doperaider-contracts/contracts/SimpleStorage.sol",
  "compiler": {
    "name": "solc",
    "version": "0.4.24+commit.e67f0147.Emscripten.clang"
  },
  "schemaVersion": "2.0.1",
  "updatedAt": "2018-09-15T15:41:57.149Z"
}